:020000022000DC
:1070000000000420B5720200DD720200DF7202008F
:10701000E1720200E3720200E5720200000000006B
:10702000000000000000000000000000E772020005
:10703000E972020000000000EB720200ED72020033
:10704000519B0200EF72020029A20200EF720200BF
:10705000EF720200EF7202006D9F0200EF720200F9
:10706000EF720200EF720200EF720200EF72020094
:10707000EF720200EF720200EF720200EF72020084
:10708000EF72020045880200EF720200EF72020008
:10709000EF720200EF72020055B20200EF720200BE
:1070A000EF720200EF720200EF720200EF72020054
:1070B000EF720200EF72020000000000000000000A
:1070C000EF720200EF720200EF720200EF72020034
:1070D000EF720200EF720200EF720200EF72020024
:1070E000EF720200EF720200EF7202000000000077
:1070F00000000000EF72020000000000EF720200CA
:10710000000000000000000000000000000000007F
:10711000000000000000000000000000000000006F
:10712000000000000000000000000000000000005F
:10713000000000000000000000000000000000004F
:10714000000000000000000000000000000000003F
:10715000000000000000000000000000000000002F
:10716000000000000000000000000000000000001F
:10717000000000000000000000000000000000000F
:1071800000000000000000000000000000000000FF
:1071900000000000000000000000000000000000EF
:1071A00000000000000000000000000000000000DF
:1071B00000000000000000000000000000000000CF
:1071C00000000000000000000000000000000000BF
:1071D00000000000000000000000000000000000AF
:1071E000000000000000000000000000000000009F
:1071F000000000000000000000000000000000008F
:1072000010B5054C237833B9044B13B10448AFF3E0
:1072100000800123237010BD08250020000000001D
:10722000ECB7020008B5034B1BB103490348AFF3A9
:10723000008008BD000000000C250020ECB7020013
:10724000154B002B08BF134B9D46A3F5803A002138
:107250008B460F461348144A121A04F0CAF80F4B13
:10726000002B00D098470E4B002B00D098470020F1
:10727000002104000D000D48002802D00C48AFF397
:10728000008004F067F82000290003F09FFD04F05F
:107290004DF800BF000008000000042000000000BE
:1072A0000000000008250020002D00200000000044
:1072B000000000000649074A074B9B1A03DD043B08
:1072C000C858D050FBDC02F057F9FFF7B9FF0000B7
:1072D000C4B802000023002008250020FEE7FEE7D6
:1072E000FEE7FEE7FEE7FEE7FEE7FEE7FEE7FEE776
:1072F000F0B595B0002415460F4608461E4602F02C
:1073000065F8384623460895082205A91A9D09966E
:107310000D950A948DF82C400C9402F0B1F89DF86C
:1073200014308DF81140DDE9061003F00302012A44
:10733000CDE9020127D0022A04D0384602F04AF8EB
:1073400015B0F0BDBDF81650C3F3C2038DF8103070
:10735000AD090826082D2C4628BF082433462246AE
:107360000EA9384602F08CF82D1B214608AB02AA64
:107370000EA8264400F08EFB002DEBD1384602F01B
:1073800029F815B0F0BDBDF81460059DC6F383164D
:10739000C3F3C204B2000EA9384608238DF810408A
:1073A000C5F3952502F06CF808AB324628460EA9C5
:1073B000009302AB00F0C8FA384602F00BF815B0A3
:1073C000F0BD00BF704700BF00B583B0044B009311
:1073D000044A4023FFF78CFF03B05DF804FB00BFB5
:1073E000E97302002825002038B50E480E4D0378B9
:1073F0000E4CEB5C0025D2B2257053B90C3003F073
:10740000A3F958B90A4B1B7813B12378002BFCD091
:1074100038BD043003F076FC0028F3D000F0E6FD20
:10742000F0E700BF00230020FC2C0020682500208E
:107430002425002070B51348134A0378D35C88B024
:10744000DBB90C3003F0FCF8104D0FCD6C460FC4C7
:1074500095E80F0008AD1F2645F8206D84E80F0061
:1074600029460022074802F0F3FA08B100F0BEFDF9
:10747000074B00221A7008B070BD043003F08EFB79
:10748000E2E700BF00230020FC2C002048B40200EB
:1074900024250020F0B52F4C85B004F5836001F061
:1074A000C5FA04F2144001F0C1FAA368DAB2D01CA4
:1074B00004EB800114F8200010F0040041D09F1C60
:1074C0000E7806F00306012E3D4633D0022E02F15F
:1074D000030621D004EB86010028F1D104EB8202DF
:1074E0000133D2680192DBB204EB830302F00302A2
:1074F000012ADE6827D0022A21D1BDF806309B0977
:107500000333360C05EB9305134801F09BFA00B1E9
:10751000A560304605B0F0BD4B8807EB9313DAB297
:10752000D11C9F1C14F821003D4604EB810100F0A2
:107530000400D1E70B88C3F383133B44EFE7002635
:10754000E2E79D1CCAE7BDF80430C3F38313360C91
:107550001D44D9E73C260020502A002021B9124BB7
:1075600003EBC00000687047104A0F49521AD20856
:1075700015D030B40E4D2B88834212D0002303E087
:1075800035F82340844205D001339A42F8D10020D7
:1075900030BC704701EBC300006830BC7047104638
:1075A00070470846F8E700BF34B80200ACB80200E4
:1075B00008250020094B013903EBC00003290BD833
:1075C000DFE801F0020806040220704740797047A6
:1075D00000797047042070470020704734B80200DB
:1075E0002DE9F04182B002AB002203F8012D324CAC
:1075F00007461846884600F095FFD4E9015303F585
:1076000080735B1B012B54D804F21C4601213046C9
:1076100001F0F4F9FFF73EFF0146304601F0EEF9C4
:10762000D4E9012303F580739B1A012BEED9D3B261
:107630000333023205219DF8070044F823106260ED
:1076400000F096FF00211D4801F0B6F980F310000C
:107650006B1CDBB204EB83030004EDB2033540EA9C
:107660001740D86014F8253067F3C50304F82530B7
:1076700034F825306FF3891324F8253054F8252089
:1076800068F39F221346012161F301036FF3820324
:1076900044F8252004F8253023781BB906E000F0D3
:1076A0000FF818B1D4E901329A42F8D102B0BDE81E
:1076B000F0812A46BBE700BF3C260020582A002064
:1076C0002DE9F0438A4C002385B0C4F81834BFF389
:1076D0004F8FA568EAB2D31C04EB830114F8233062
:1076E000580718D566680B7803F00303012B42D0C6
:1076F000022B03D14B88023505EB9315EAB2D4F87F
:107700001804D31C04EB830128B9AE4239D914F80C
:1077100023305B07E7D404EB82026B1CD268019232
:10772000DBB204EB830302F00302DB680293022A5C
:1077300005F1020600F08C80012A26D0D4F81054FE
:107740003DB12B6828469B689847EB681D68002D63
:10775000F7D16848684B6949C01AC008000440F076
:107760000200FFF73DFFD4E90130C01A18BF012025
:1077700005B0BDE8F0830B880235C3F383131D44C5
:10778000BCE7A66005B0BDE8F083BDF804205C4806
:10779000C2F38313062B28BF062363F38912023337
:1077A0009900ADF8042001F0CFFD07460028C5D0B0
:1077B00001F00CFE0023082201A9384601F02CFE3E
:1077C000BDF8043013F4707F00F08F806FF0010972
:1077D000A9EB05090825F1B203312B46042204EB7D
:1077E0008101384601F018FEBDF8043006F10108A9
:1077F00009EB0802C3F383139342464605F10405DF
:10780000E9D8D4F81834002B65D1D4F8105465B1F8
:10781000EB685A7928463946002A58D02B681B68ED
:107820009847EB681D68002DF2D1384601F0D2FD73
:1078300004A8002300F80D3D00F074FED4F81834BD
:107840000BB9C4F808809DF8030000F091FE8AE7A8
:10785000BDF806302A484FEA93194D46502D28BFEF
:10786000502565F38F1305F10801ADF8063001F0DE
:107870006BFD074600283FF461AF6FEA06085FFA28
:1078800088F801F0A3FD08F1010801A900230822EE
:10789000384601F0C1FD4FEA8808F1B20331454591
:1078A00004EB81011BD9A5EB0805082342463846A5
:1078B000EDB201F0B1FD2A4608F10803114938463E
:1078C00001F0AAFD09F1030806EB980899E71D6885
:1078D000002D9DD1A9E7384601F07CFD43E72A46FB
:1078E0000823384601F098FDECE7B04689E700BF71
:1078F0003C2600205CB8020034B8020088B40200C4
:1079000020B8020048260020044BD3E901239A4204
:1079100001D0FFF7D5BE0020704700BF3C260020F5
:1079200038B5084BD3F8104401251D704CB1E368FD
:107930005D71236820465B689847E3681C68002CEB
:10794000F5D138BD3C2600202DE9F04784B01D4616
:107950000C9C002394F80C802373EB8881460E4620
:107960001746002B40D1297A05290ED06B7AA888BA
:1079700073BB404B53F821A00021FFF7EFFD5246A7
:1079800003463D49204601F0B9F8062F09D8DFE843
:1079900007F0046A4249525D33004946204601F02F
:1079A000ADF82B7A052B05D06B7A5BB933492046AD
:1079B00001F0A4F8204601F095F884F80C8004B09A
:1079C000BDE8F0872E4A2F49204601F097F8EDE7F1
:1079D000FFF7F0FD2C4B2B4953F82020204601F0F7
:1079E0008DF8297AA888C4E7254A00922749284AB1
:1079F000204601F083F8B6E7D6E90410D6E9002363
:107A00000390D6E902070291CDE9000749462046D6
:107A100001F074F8C5E74946D6E90023204601F095
:107A20006DF8BEE7B168D6E90023204600914946CB
:107A300001F064F8B5E7D6E90201D6E90023019127
:107A400000904946204601F059F8AAE7D6E90371AB
:107A5000B068D6E900230291CDE9000749462046E7
:107A600001F04CF89DE732684946204601F046F89F
:107A700097E700BF14B5020004B5020010B502007C
:107A8000F8B4020000B50200A0B40200E0B40200A5
:107A9000D8B40200082900D970472DE9F04F1D46DF
:107AA000904600232A7B2B7385B0B8F806300392EA
:107AB00007460E46002B7BD198F80810052911D0F7
:107AC00098F80930B8F80400002B63D13C4B53F808
:107AD00021400021FFF742FD22460346394928464E
:107AE00001F00CF8DFF8FCB0DFF8FC90002405E0B2
:107AF0003A5D013401F002F8082C09D0A64249464B
:107B00002846F5D85946013400F0F8FF082CF5D185
:107B10002D49DFF8D8B0DFF8D890284600F0EEFF06
:107B200000240CE017F804A0BAF17E0F23D92E220E
:107B300049462846013400F0E1FF082C08D0A6424F
:107B4000F0D859462846013400F0D8FF082CF6D169
:107B500098F80830052B02D098F80930A3B91B49D2
:107B6000284600F0CBFF284600F0BCFF039B2B7398
:107B700005B0BDE8F08F03F011FC50445246437845
:107B800013F0970FD3D0D3E7114A1249284600F0DB
:107B9000B5FFE4E7FFF70EFD0F4B0E4953F8202029
:107BA000284600F0ABFF98F80810B8F804008DE7FD
:107BB000074A009209490A4A284600F09FFF7BE7DE
:107BC00014B5020004B50200D0B4020010B50200E2
:107BD000F8B4020000B50200A0B40200E0B4020054
:107BE000D8B40200CCB40200C4B402000CB5020048
:107BF000D4B4020070B51A4B1D789DB1194B1C68A6
:107C00002378C0B2984210D004F10802002306E0A5
:107C100014F833108142164602F1080206D00133EF
:107C20009D42F5D100231B78FFDE264602F08EF937
:107C30007378A3F10103B3FA83F35B09834200D0A5
:107C400070BD094BD3E900231343F9D1074B084812
:107C5000196800224908BDE8704000F0F1BB00BF80
:107C60005C2A0020B02A0020882A0020602A0020F8
:107C7000682A00202DE9F04F9D4E337887B0002B05
:107C800000F030819B4F9C4DDFF8788200244FF04C
:107C90000109D7F800B01BF8340002F057F90BEBDC
:107CA000C4031BF834B05B784FEA5B0C1BF0010E89
:107CB00015F80C10A3F10103B3FA83F314BF0A09FA
:107CC00001F00F025B09042A00F2D080DFE812F015
:107CD0009800D000690048000500834200F0E98068
:107CE000BEF1000F0CBFF0230F233078194005F8C8
:107CF0000C10A8B1D7F800C09CF800305B4500F02C
:107D0000E7800CF10802002304E01CF83310594509
:107D100000F0DF8001338342964602F10802F4D17D
:107D20004FF000030DF117008DF817300023039377
:107D300000F0F8FBABF12002CBF1200329FA03F3AA
:107D400009FA02F21A4309FA0BF103920291D8E9F7
:107D50000023DDE9020122EA000023EA01017DE0BF
:107D6000834232780CD0BEF1000F0CBFF0230F23FA
:107D700003EA01030CBF04214021194305F80C104C
:107D80000134944285DBD8E90023134306D05B4BD2
:107D90005B4819680022490800F052FB07B0BDE8B3
:107DA000F08F834276D1BEF1000F14BF0F23F02372
:107DB00003EA0103327814BF30210321194305F887
:107DC0000C10002ADFD0D7F800C09CF800305B45CB
:107DD00000F08B800CF108010023013393428E46A2
:107DE00001F10801CCD01CF833005845F5D1DEF87C
:107DF0000430002BC4D05846012198473278BFE7A1
:107E0000834233D1BEF1000F0CBFF0230F2303EAEE
:107E100001030CBF0121102119434FF000030DF1A4
:107E200017008DF817300023019305F80C1000F0AF
:107E300079FBABF1200309FA03F301930198CBF12D
:107E4000200129FA01F1084309FA0BF10190009190
:107E5000D8E90023DDE900011043194302460B462F
:107E60009DF81700C8E9002300F082FB327887E70D
:107E7000834213BF0023202302221A46BEF1000FC3
:107E800012BF0F20F020134601400B4305F80C30C1
:107E9000327875E7BEF1000F0CBFF0230F2303EA21
:107EA00001030CBF01211021194305F80C10327891
:107EB00066E7BEF1000F14BF0F23F02303EA0103AE
:107EC00014BF30210321194305F80C10327857E70D
:107ED000E646DEF80430002B3FF422AF002158467E
:107EE00098471DE7DFF81C804DE7E6467FE700BFB7
:107EF0005C2A0020B02A0020902A0020602A00205E
:107F0000682A0020882A0020092A40D9F0B583B0C9
:107F10000E460546144601F0A3FE002831D0204A43
:107F20002049214B15600E70202200211F481C6043
:107F300003F05FFA1E4B00200021741EC3E900010C
:107F4000E4B236B305EBC4041A4E083D032701E042
:107F5000A5421ED09DF8063020788DF8047003F0FD
:107F6000FC036FF382038DF80630A3788DF805309B
:107F7000324601A901F07EFE083C0028E8D003B09B
:107F8000F0BD01F017FE0028C9D003B0F0BD0720F6
:107F90007047094A0948002100F044FA03B0F0BDD7
:107FA000B02A00205C2A0020602A0020902A0020AD
:107FB000882A0020F57B0200757C020080B5020053
:107FC00070B5084D2B785BB1074E00243368012152
:107FD00013F8340001F03EFF2B780134A342F5D8AA
:107FE000002070BD5C2A0020B02A002000B585B0BA
:107FF00000230390194601AA44F20100CDE90133A0
:1080000000F004F805B05DF804FB00BF10B572B6CF
:10801000FFF786FCFFF778FC0028FBD1104B114CD2
:108020001149E41AE408240444F00100FFF7D8FAE7
:108030000E4B1B68DB0700D500BE44F002000C4964
:10804000FFF7CEFABFF34F8F0A490B4BCA6802F411
:10805000E0621343CB60BFF34F8F00BFFDE700BF6B
:1080600034B802005CB8020090B50200F0ED00E008
:108070009CB5020000ED00E00400FA05D0E90223FF
:10808000D1E90201994208BF90422CBF0120002093
:10809000704700BF2DE9F04F87B0039000F08EFBD2
:1080A00040B19B49D1E9002312F1807443F10005EE
:1080B000C1E9004500210398964C00F09BFB60B19C
:1080C000236853B1944B25681B7823B11DB12B7FD6
:1080D000002B40F02D81002323600121039800F044
:1080E00089FB002840F0F38005A98C4800F008FCCB
:1080F00018B38B4E884F894D0378012B00F0C68052
:10810000C0F0CC80022B0ED130464FF0000801F0B9
:1081100015FA30B180F81C80304601F00FFA0028C3
:10812000F8D101233B7005A9284600F017FC05A9EA
:10813000284600F0E5FB0028DED1794E794FDFF8C4
:10814000D09103E00D2855D000232360304601F084
:10815000FBF92368002800F0B48063B12368D0E9FC
:108160000201D3E90223994208BF90423BD223681F
:108170001B7F002B7FD1304601F0E0F90546D5E9A1
:1081800002233846CDE9002300F046FBD9E900235D
:10819000DFF8948112EB000A43F1000BD8E90023C9
:1081A0009B4508BF924503D21AF1807A4BF1000B30
:1081B000DDE90001B0EB0A0061EB0B01012871F170
:1081C000000313DBDFF864A1504559D8AA684FF4C7
:1081D00096030021384600F06BFA0028B2D12368DC
:1081E000002B67D0256007B0BDE8F08F002138462E
:1081F00000F0F4FA484B1B78002BA5D02B7F002B06
:10820000A2D0384600F008FBD8E90023D9E900AB3A
:10821000CDE900231AEB00024BF10003104619468A
:10822000DDE90023994208BF904203D210F180702B
:1082300041F10001D5E90223994208BF904261D380
:108240002B6903B92B77D5E90530984729690029AF
:108250003FF47AAF2B7F002B3FF476AFD5E90223B2
:1082600012EB010A43F1000BC5E902AB2946304687
:1082700001F050F968E72168304601F04BF97AE7E0
:10828000384600F0C9FA00EB0A02A0E7416823680B
:10829000994213D0304601F05BF944E743681A7FF6
:1082A000002A7FF440AF01221A774168304601F07E
:1082B00031F938E7039800F0CDF993E70023236004
:1082C00031E7002B8FD1039800F0C8F98BE71548F0
:1082D000DFF8548000F0A0FA0D4BD3E90067D8E92D
:1082E000002316EB000947F1000A9A4508BF9145A3
:1082F0004846514603D219F180704AF10001C8E99D
:108300000001F1E62946304601F004F91CE700BF00
:10831000B82A0020382B0020C02A00201C2B002067
:10832000B0B502001C230020302B0020FFFFB4005A
:108330001D4800F071FA1D4A1D4BD2E90067D3E9D0
:10834000002316EB000847F10009994508BF904546
:108350004046494603D218F1807049F10001D5E941
:108360000223994208BF904219D32B6903B92B7796
:10837000D5E905309847296900293FF4ACAE2B7F39
:10838000002B3FF4A8AED5E90223561843F10007AD
:10839000C5E902672946074801F0BCF89BE6294673
:1083A000044801F0B7F896E61C230020B82A002004
:1083B000302B0020B0B5020010B5134B13491B68D9
:1083C000134882B058220193082300F045FA04466E
:1083D00010B1204602B010BD0E4A0F4801A900F0AE
:1083E000DFF804460028F4D101210B4800F0DCF945
:1083F00001231946094A084800F034F9084B0122C4
:1084000020461A7002B010BDACB50200C42A00208C
:108410001C2B0020958002001C230020FFFF7F0002
:10842000C02A00204AB1A1F101010368B1FA81F12B
:108430004909C3E90412002070470720704700BFB4
:10844000037F0BB1002070472DE9F048826182B0B4
:1084500004461F480D4600F0DFF91E4B1E49D3E9C4
:108460000023D1E9006712EB000B43F1000CBC457F
:1084700008BFB34503D21BF1807B4CF1000C1BEB12
:10848000050221694CF10003C4E9022379B901A96D
:10849000124800F0F9F988B100254460057001A97F
:1084A0000E4800F01DFA68B902B0BDE8F0882561F9
:1084B00001A90A4800F0E8F90028EDD1042002B033
:1084C000BDE8F088024800F0ABF92846ECE700BFB1
:1084D0001C230020B82A0020302B00201C2B002059
:1084E00030B5002583B00446057701A90B4800F09C
:1084F000CBF978B101234460037001A9074800F06B
:10850000EFF908B903B030BD054800F089F92846F5
:1085100003B030BD042003B030BD00BF1C2B0020D1
:108520001C23002070B4EFF3108472B60D4B9A68D0
:10853000AAB90D490D4E01259D60D1F880503540F6
:108540001D60C1F88060D1F884505D604FF0FF334A
:10855000C1F88430027004B962B670BC7047012360
:108560000370F8E7F02C002000E100E0FC06FFBDFE
:10857000094B9A687AB170B910B4EFF3108172B6F2
:10858000064A1C6814605C685460986001B962B661
:108590005DF8044B70477047F02C002000E100E0CC
:1085A000F8B5244E4579244C244B254F9B1B04EBF6
:1085B000C506DB08367947F825201B0496BB026800
:1085C0000D88C2F8085590F904208978002A21DB2B
:1085D00002F1604202F561424901C9B282F800131A
:1085E00090F90420002A07DB164D02F01F06012136
:1085F0005209B14045F822104279134944F832003B
:1086000004EBC20443F0030001232371FEF7E8FFEB
:108610000020F8BD0D4D02F00F0249011544C9B20A
:108620002976DDE743F002000949FEF7D9FF08206B
:10863000F8BD00BF34B802003C2B00206CB802002B
:10864000442B002000E100E0FCB50200FCEC00E05F
:10865000D8B50200036801221A607047036801223E
:108660005A607047F0B404684FF480358D40C4F808
:10867000085306688C00C6F8485304F5A0740668D1
:10868000A4B20027375182B036590468019601F52B
:10869000A87122F07F42019E44F821200268C2F8AE
:1086A000445313B10368C3F8045302B0F0BC7047DD
:1086B0002DE9F04788464FF48037016807FA08F73C
:1086C000C1F848730168C1F80873064600684FEAAC
:1086D00088040119D0F80455D1F84005C1F8405577
:1086E00004F5A074A4B231684FF0000941F8049079
:1086F00082B0401B0959009120F07F4001289A4622
:1087000022F07F45009B0BD1264B4FF4806043F055
:1087100001039847336843F804901B590193019B68
:108720003368D3F80445C3F844732B1B23F07F430D
:10873000012B08F5A87817D130681A4B013540F89D
:10874000285043F001034FF4806098473268D2F814
:1087500004359C4222D1C2F8447333680020C3F828
:10876000047302B0BDE8F087336843F828503268DC
:10877000D2F804156B1ACAF1FF1A013B0AF57F4AB9
:1087800023F07F439A4509D3002BE4D1013542F809
:1087900028503268D2F804359942DCD00D2002B05E
:1087A000BDE8F087D0B5020002680223C2F8443366
:1087B00011B10268C2F80433704700BF0368D3F8F0
:1087C000040150B1002282B0C3F80421D3F804316F
:1087D0000193019B012002B0704770474FF4803332
:1087E000026803FA01F1C2F848130368C3F80813DA
:1087F000704700BF890001F5A07189B2036858581D
:1088000040B100225A5082B05B580193019B012075
:1088100002B07047704700BF0368D3F80405704783
:1088200090F90430002B09DB5A09403203F01F0392
:108830000121034801FA03F340F82230704700BFDA
:1088400000E100E0024A034B10681B68184700BFB4
:108850003C2B0020442B002099B110B4B2FBF3F460
:1088600003FB1424A4B244B9C0E9001484608281DB
:10887000C38120465DF8044B704709205DF8044B26
:1088800070470E20704700BF30B482B050E8013FFF
:108890009DB2C48925448489A54228BF2D1B048923
:1088A000A54202BFBFF32F8F002207E0C5EA0305F0
:1088B00040E80154002CE9D14FF001028DF803206B
:1088C0000193019B9DF803200B602AB10B8800687F
:1088D000184402B030BC704702F0FF031846F8E7B6
:1088E0000A884B889A4201D00020704750E8012F37
:1088F000C2EA024240E80123002BF7D10120704771
:1089000030B482B050E8023F1FFAA3F5C488A542F4
:1089100002BFBFF32F8F00220DE0C4892544848954
:10892000A54228BF2D1BC3EA054540E80254002C90
:10893000E8D14FF001028DF803200193019B9DF8CF
:1089400003200B602AB14B880068184402B030BC89
:10895000704702F0FF031846F8E700BF0A884B880B
:108960009A4201D00020704750E8022FC2EA22420A
:1089700040E80223002BF7D10120704701F01F02CD
:108980004B09012100EB8300914000F01FB800BFAC
:1089900001F01F0201234909934000EB8100D943F4
:1089A00000F020B84B0901F01F0150F82300C84027
:1089B00000F00100704700BF50E8002F0B4640E870
:1089C000003C9CF0000FF7D11046704750E8003F84
:1089D00043EA010240E8002C9CF0000FF6D110465B
:1089E000704700BF50E8003F03EA010240E8002C56
:1089F0009CF0000FF6D11046704700BF50E8003FD2
:108A000003EB010240E8002C9CF0000FF6D1104669
:108A1000704700BF50E8003FA3EB010240E8002C84
:108A20009CF0000FF6D11046704700BF012350E8BC
:108A3000002F42EA030C40E800C191F0000FF6D18C
:108A400060467047002350E800CF0CEA030240E87C
:108A5000002191F0000FF6D160467047F0B583B069
:108A600002AB002503F8015D04461846FFF75AFDE6
:108A7000D4E900311A688A4210D9511E1960216860
:108A8000A3680F6812F8015C0A79268AE068DB1B8C
:108A9000DBB29A4206FB050538BF0B719DF8070053
:108AA000FFF766FD284603B0F0BD00BF30B583B0C8
:108AB00002AB002203F8012D054618460C46FFF7CD
:108AC00031FD2A681368591C1160E9682A8A641A02
:108AD000B4FBF2F41C709DF80700FFF749FD03B0EA
:108AE00030BD00BF826842B110B5044643690168D9
:108AF000006998470023A36010BD70470EB400B50D
:108B000082B0039929B102AA04AB42F8043D00F0F7
:108B1000A9F802B05DF804EB03B070472DE9F04FFF
:108B2000924683B051450F4605461E46DDE90CB21C
:108B3000C0F092800B464FF00108B3FBFAF39A4560
:108B400008F10108F9D9B04538BFB04612F0010963
:108B5000A96802D1BBF1000F54D1012402E0013E0B
:108B60000AFB04F4012EFAD8B7FBF4F08245F7D9DA
:108B70003B4E02E0A968B7FBF4F0335C2A680A2B8D
:108B800004FB107702EB010E01F1010029D0A8606F
:108B90008EF80030D5E90131994202D32846FFF71B
:108BA000A1FFB4FBFAF4002CE4D1B9F1000F15D009
:108BB000BBF1000F12D0C34510D92024AB682A683E
:108BC000591CA960D454D5E901329A420BF1FF3BFC
:108BD00014D2BBF1000F01D0C345EFD103B0BDE803
:108BE000F08FA8604FF00D005054D5E90110884275
:108BF0001DD2296801EB000E0130C8E72846FFF7B7
:108C000071FFE6E7930722D42024C345A5D92B683A
:108C10004A1CAA605C54D5E9013199420BF1FF3B33
:108C200010D2BBF1000F98D0C345F0D195E728468C
:108C30000193FFF757FFAA682968019B501C01EBBD
:108C4000020EA4E72846FFF74DFFA968E9E7002ECA
:108C50000CBF30242024D8E74FF0010873E700BF91
:108C600010B60200002900F0B9822DE9F04F054648
:108C700087B091460C460E78DFF8C8A64FF00D0B72
:108C800013E0AB6828680A2E03F1010200EB030130
:108C900000F04B82AA600E70D5E901329A4280F052
:108CA0001B812678002E00F01E810134002E00F07A
:108CB0001A81252EE5D12346002713F8012B2D2AF2
:108CC00000F0E380302A00F0E4802B2A00F0D4800A
:108CD0002A2A00F00D81A2F13006F1B2092903D948
:108CE0007DE2A1F130060346184606EB860110F836
:108CF000012BA2F13004092C02EB4101F1D92E2AFB
:108D000000F002814FF00008013301E013F8012B5D
:108D100002F0FB0168291C46F8D0253A532AC0D836
:108D200001A353F822F000BF13910200A38C0200AC
:108D3000A38C0200A38C0200A38C0200A38C02006F
:108D4000A38C0200A38C0200A38C0200A38C02005F
:108D5000A38C0200A38C0200A38C0200A38C02004F
:108D6000A38C0200A38C0200A38C0200A38C02003F
:108D7000A38C0200A38C0200A38C0200A38C02002F
:108D8000A38C0200A38C0200A38C0200A38C02001F
:108D9000A38C0200A38C0200A38C0200A38C02000F
:108DA000A38C0200A38C0200A38C0200A38C0200FF
:108DB000A38C0200A38C0200A38C0200A38C0200EF
:108DC000A38C0200A38C0200A38C0200A38C0200DF
:108DD000A38C0200A38C0200A38C0200A38C0200CF
:108DE000A38C0200A38C0200A38C0200A38C0200BF
:108DF000A38C0200F7900200A38C0200A38C020057
:108E0000A38C0200A38C0200A38C0200A38C02009E
:108E1000A38C0200A38C0200A38C0200A38C02008E
:108E20009B8E02007D900200A38C0200A38C0200A6
:108E3000A38C0200A38C02007D900200A38C020090
:108E4000A38C0200A38C0200A38C0200A38C02005E
:108E5000A38C0200E58F0200A38C0200A38C020009
:108E60005D8F0200A38C0200418F0200A38C0200E0
:108E7000A38C0200F790020047F004071C4623462B
:108E800013F8012B2D2A7FF41DAF47F001071C4674
:108E9000F5E747F002071C46F1E7D9F800301A1D44
:108EA000C9F800201E78AB680A2E0CD12A68591C1C
:108EB000A96002F803B0D5E90123934203D3284601
:108EC000FFF710FEAB682A68591CA960D654D5E993
:108ED00001329A42FFF4E5AE2846FFF703FE2678FA
:108EE000002E7FF4E2AE2B7B23BB07B0BDE8F08FF2
:108EF000D9F80020111DC9F80010166862782E2AD2
:108F000004F102007FF4FEAE5A78A2F13003092B7F
:108F100000F2BD814FF0000808EB880802EB48081A
:108F200010F8012FA2F13003092BA8F13008F3D972
:108F30000346E9E6284607B0BDE8F04FFFF7D2BD8B
:108F4000D9F800301A1DC9F8002019680197434666
:108F500000960A222846FFF7E1FDA2E6D9F8003084
:108F60001A1DC9F80020D3F80080FB0700F1E88043
:108F7000B8F1000F00F0A181404602F042FA074626
:108F8000BE4215D9A6B1202100E08EB1AA682B6897
:108F9000501CA8609954D5E901329A4206F1FF3677
:108FA00004D328460391FFF79DFD0399BE42ECD1FF
:108FB00008F1FF3818F8016F002E3FF472AEAB686D
:108FC00028680A2E03F1010200EB030100F09081F2
:108FD000AA600E70D5E901329A42EBD32846FFF71A
:108FE00081FDE7E7D9F80020131DC9F80030AB6810
:108FF00029681768581C3022A860CA54D5E9012393
:10900000934280F0E6802A68581C7821A860D154E9
:10901000D5E90123934280F0D7800F2F03D93A4638
:1090200012090F2AFCD84FF080560DE0AA6081F893
:109030000080D5E901329A4202D32846FFF752FD5B
:1090400036093FF42EAEAB68B7FBF6F21AF8028091
:109050002868B8F10A0F06FB127700EB030103F151
:109060000102E3D1AA6000F803B0D5E901329A42C7
:1090700080F049812B6899180132D7E7D9F8003080
:109080001A1DC9F80020196881EAE173A3EBE173A6
:10909000092B40F30E81AA480122A0FB03C3DB0881
:1090A000092B02F10102F8DC4245134638BF434662
:1090B000039307F00203002E40F09580002B00F090
:1090C000B780B8F1000F00F0F680F80740F1B080EB
:1090D0000029C0F2FF807A0700F1C88007F003037F
:1090E000022B00F0A780CDE9006743460A222846FC
:1090F000FFF714FDD5E5D9F800301A1DC9F8002096
:10910000196801974346009610222846FFF706FD8E
:10911000C7E5AB682A68581C2521A860D154D5E959
:1091200001329A42FFF4BDADD6E6AA6000F803B062
:10913000D5E901329A423FD2296811440132A9E5AA
:109140004146A1EB080311F8017BD7B1AB68D5F814
:1091500000C00A2F03F101020CEB030000F0AF8006
:10916000AA600770D5E901329A42EAD328460391F2
:10917000FFF7B8FC0399A1EB080311F8017B002F5E
:10918000E4D19E427FF68DAD202702E0002E3FF411
:1091900088ADA9682A68481CA8605754D5E9012100
:1091A000914206F1FF3604D328460393FFF79AFC59
:1091B000039BB342EAD174E52846FFF793FCAB6802
:1091C00029685A1C194465E52846FFF78BFCAB68F3
:1091D00023E72846FFF786FCAB6814E7704718467C
:1091E000002623468BE5002920DB7A071ED41BB11D
:1091F000B8F1000F3FF46CAFF8073FF569AFBEB1AF
:10920000039BB342BFF464AF2023AA68501CA8603C
:1092100028688354D5E90102824206F1FF3640D224
:1092200036B1039AB242F0D1164651E7013EDEE76D
:1092300000264DE7B8F1000F7FF455AF002E6AD03D
:10924000039BB342BFF44FAF3023AA68501CA86001
:1092500028688354D5E90102824206F1FF3618D20C
:10926000002E58D0039AB242EFD13CE7AA68531CB3
:10927000AB602B682B209854D5E901329A42FFF459
:109280002DAF28460491FFF72DFC049926E70346ED
:1092900038E52846CDE90413FFF724FCDDE9041383
:1092A000DEE72846CDE90413FFF71CFCDDE90413D3
:1092B000B6E70122F8E646460AE7474660E6AA60B6
:1092C0000CF803B0D5E901329A4226D22B689818DF
:1092D000013245E7AA68531CAB602B682D209854D7
:1092E000D5E901329A42C1F10001FFF4F7AEC8E7B7
:1092F000AA6000F803B0D5E901329A4217D2296872
:109300001144013264E62846FFF7ECFBA9682B689C
:109310004A1C19448AE60026E5E628460391FFF731
:10932000E1FBA8682B680399421C184418E72846FB
:10933000FFF7D8FBAB6829685A1C194448E600BF00
:10934000CDCCCCCC10B602002DE9F041058ACE1C64
:10935000043D2E440746B6FBF5F6FFF77FFB78B3D6
:10936000F6B24FF48073013E0446C58007608380E7
:1093700027D08046002509E06379AE4203F101035E
:109380006371C8F80000076080461AD03846FFF7BE
:1093900065FB01350028EFD16679721E14D0234693
:1093A000013082421B68FBD11F684EB10025236843
:1093B0002146013538461C46FFF778FBAE42F6D110
:1093C00000242046BDE8F0812768EFE70430012142
:1093D000FFF714BBF8B5012104460430FFF71AFB70
:1093E000C0B200B1F8BD6679721E12D023460130BA
:1093F00082421B68FBD11F68002EF3D00025236832
:109400002146013538461C46FFF750FBAE42F6D1E7
:10941000F8BD2768F2E700BF2DE9F843C788467911
:1094200007FB06F6043E02EB030C0446664503F117
:10943000040015468846B0FBF7F238BFF51A07FB63
:10944000120012B1013A2468FCD13E1AAE4228BF84
:109450002E469DB14FF000090430AD1B204432462A
:1094600008EB090101F0BAFFAF42B14424683E465F
:109470004FF0000028BF2E46002DEDD1BDE8F88347
:109480002DE9F843C7884679154607FB06F6043EE2
:1094900005EB030C1A1D664504468846B2FBF7F03F
:1094A00038BFF51A07FB102110B101382468FCD130
:1094B0007E1AAE4228BF2E469DB14FF000090431FE
:1094C0002144AD1B324608EB090001F087FFAF4293
:1094D000B14424683E464FF0000128BF2E46002DBF
:1094E000EDD1BDE8F88300BF01600B6843604A68B6
:1094F000934204BF00234360704700BF436843B1F9
:10950000026891680B4443605268934204BF002391
:109510004360704770B54468064620680D4618B928
:1095200008E02468206828B1B368294698470028D5
:10953000F7D120682860256070BD00BF43681868B7
:1095400008B102681A60704743681868704700BF26
:109550004068036873B18B4203D107E0814204D0B5
:10956000034618680028F9D1704718460B68036055
:10957000012070471846704710B4754B1B68082BC4
:109580001CD0744AD2F8883043F47003C2F8883093
:10959000BFF34F8FBFF36F8F4FF01023D3F800222C
:1095A000002AC0F2A380D3F80432002BC0F29E80C0
:1095B000694B6A4A1A605DF8044B70474FF080416E
:1095C0004FF080520020C1F80C01654BC1F810012A
:1095D000C1F83805D2F80414C3F82015D2F80814DD
:1095E000C3F82415D2F80C14C3F82815D2F81014B7
:1095F000C3F82C15D2F81414C3F83015D2F8181487
:10960000C3F83415D2F81C14C3F84015D2F820144E
:10961000C3F84415D2F82414C3F84815D2F8281416
:10962000C3F84C15D2F82C14C3F85015D2F83014E6
:10963000C3F85415D2F83414C3F86015D2F83814AE
:10964000C3F86415D2F83C04C3F868054549D2F85C
:109650004004C3F86C050968D2F84424C3F87025A7
:10966000032937D8404B5B5C13B1404B404A1A602A
:10967000404B5B5C63B1364B3F491B68394AFB206A
:10968000C1F81805082B11687FF47BAF032921D896
:109690003A4B5B5C93B13A483A4B2D4C02681B68DD
:1096A0002468304922F00F0203F00F031343082C03
:1096B000096803607FF465AF03290BD8324B5B5C0C
:1096C00043B1234B314A1B684FF40071082B1160E2
:1096D0007FF457AF4FF08043D3F80024D2077FF5D3
:1096E00050AF6FF00102C3F800244AE7284B012273
:1096F000C3F80425D3F80024002AFBD04FF0102330
:1097000012222349C3F80022D1F80034002BFBD0E9
:109710004FF0102212211E4BC2F80412D3F800247D
:10972000002AFBD000221A49C3F80425D1F80034DE
:10973000002BFBD0BFF34F8F0649164BCA6802F4CB
:10974000E0621343CB60BFF34F8F00BFFDE700BF64
:109750003001001000ED00E0242300200090D00331
:1097600000C000403401001038B602008C560040A2
:109770004881030038B6020000F0004038B602000D
:10978000E40E00405802001038B602004096024035
:1097900000E001400400FA05074B1B5C1F2B86BF4D
:1097A00003F01F0305494FF0A041012202FA03F321
:1097B000C1F80C35704700BF3CB6020000030050F2
:1097C000074B1B5C1F2B86BF03F01F0305494FF09F
:1097D000A041012202FA03F3C1F80835704700BF27
:1097E0003CB6020000030050C30706D4830742BF03
:1097F0002E4B0C22C3F81827704770B44FF08043EB
:10980000D3F84036DA0722D44FF0A0432749032289
:1098100040264FF480754FF40074C3F81827C3F83E
:109820002027C1F82427C3F83027C3F808654FF470
:109830008052C3F80855C1F808458107C3F80825C8
:1098400003D51A4B0C22C3F8182770BC70474FF091
:109850001023D3F8043303F00703072BD4D1144BA0
:109860000122C3F80425D3F80024002AFBD04FF0CE
:1098700010210020D1F804230D4C22F0070242F001
:109880000402C1F80423C3F80405D4F80034002B03
:10989000FBD0BFF34F8F0749074BCA6802F4E06261
:1098A0001343CB60BFF34F8F00BFFDE700030050B1
:1098B00000E0014000ED00E00400FA0510B570B1D1
:1098C00001280BD10D4C2369A0703BB1D3E90023D3
:1098D0000120226198472369002BF7D110BD074C66
:1098E000A36801226270002BF8D0D3E90023002086
:1098F000A2609847A368002BF7D1EFE7482B002020
:1099000070B910B5074CA368012262703BB1D3E96E
:1099100000230020A2609847A368002BF7D110BD58
:10992000704700BF482B002030B5012883B025D0F8
:109930001AD3032816D100F0DDF802A80023264C24
:1099400000F8013DFEF7EEFDE368013BE360E368EC
:1099500023B9224BD3F80054002D36D09DF80700D0
:10996000FEF706FE03B030BD1D4B0122C3F8802078
:10997000BFF34F8FBFF36F8F03B030BD02A800233A
:10998000154C00F8013DFEF7CDFD237853B1E36897
:109990009DF8070001330122E360A270FEF7E8FDA5
:1099A00003B030BD0F486360A3602361E36000F043
:1099B00093F801F049FC60B10123084A2370D2F802
:1099C0000024002AE3D0A370E1E700F0A5F8A57019
:1099D000C4E700F08FF8EFE7482B002000000140BB
:1099E00000E100E0BD98020030B585B0047845681C
:1099F0008DF80040D0E90240064A074B039053F827
:109A0000213001958DF8084052F82110684698479A
:109A100005B030BD5C2B0020642B002030B585B034
:109A2000047845688DF80040D0E90240064A074BAB
:109A3000039053F8213001958DF8084052F8211019
:109A40006846984705B030BD5C2B0020642B002091
:109A50002DE9F043DFF8748006784B7F08F8063074
:109A60000D46074696460FCD89B06C460FC495E863
:109A70000F003D78DFF85890DFF858C018F805500F
:109A800049F826E084E80F004CF82600049665B1FA
:109A9000BEF1000F0B4A694607F1040008BF00221F
:109AA00000F062FF09B0BDE8F083BEF1000F064A86
:109AB000694607F10C0008BF002200F0CDFC09B098
:109AC000BDE8F083E99902001D9A0200FC2C0020F9
:109AD000642B00205C2B0020054A13792BB901214F
:109AE000106053711846117170478520704700BF90
:109AF0006C2B0020074B1A68D20704D4C02283F8CD
:109B0000002301221A604FF080430122C3F8182578
:109B1000704700BF00E100E010B40B4B0B494FF061
:109B2000804200200224C2F8084383B018601B68FA
:109B30000193012301980B60D2F81834DB03FBD4A6
:109B400003B05DF8044B7047040100400C00004076
:109B500010B5154B1A6882B07AB10021134A19600A
:109B60001B68507900934FF080410123009CC1F89D
:109B7000083310B91168537188470D4B1A6882B1C8
:109B800000221A601B6801934FF080420221074BAC
:109B90000198C2F808131B68012002B0BDE810400C
:109BA000184702B010BD00BF000100406C2B002020
:109BB0000401004030B5254C94F86A3083B0002B86
:109BC00041D14FF0FF32FF254FF6FF7005E05A09F3
:109BD000012A0CBF02464FF0FF3203F01F01CA40BA
:109BE000D20744BFE21882F830502F2B03F1010353
:109BF000EDD14FF0FF330622002115482366C4E95A
:109C00000033C4E90233C4E90433C4E90633C4E9C8
:109C10000833C4E90A3301F0ECFB0E4BC02283F891
:109C2000062340221A600C4B0C4A002018601B6867
:109C30000193019D01214FF0004384F86A10C2F89E
:109C4000043303B030BD082003B030BD742B0020B6
:109C5000D82B002000E100E07C6100400060004063
:109C6000034B93F86A00003018BF0120704700BF13
:109C7000742B0020F0B5744B1C1894F93050002D53
:109C80006ADA8E78C6F340069646002E5ED11D6ACB
:109C9000013500F0C48009240C2553F824700137E5
:109CA0005DD004F1010C53F82C70013700F0C28034
:109CB000A71CAF4248D253F82720013200F0BC80E5
:109CC00004F1030CAC453FD253F82C70013700F07F
:109CD000B18004F1040CAC4536D253F82C70013736
:109CE00000F0A88004F1050CAC452DD253F82C707F
:109CF000013700F09F8004F1060CAC4524D253F8E4
:109D00002C70013700F0968004F1070CAC451BD293
:109D100053F82C70013700F08D8004F1080CAC452D
:109D200012D253F82C70013700F0848004F1090C32
:109D3000AC4509D253F82C7001377BD00A34AC42C1
:109D400002D2DC6A013409D00420F0BD1D6801355F
:109D500074D001240825A0E70820F0BD0B241F18AB
:109D600065B243F824E087F83050002E5ED08A7840
:109D700054071AD4D60741D41F284A7887BF334ED8
:109D800000F01F0404464FF0A04604F5E074920072
:109D900046F824202E4EC40800F0070C375D01223F
:109DA00002FA0CF23A4332558A780C7812F0020229
:109DB00009D1083D2B44104693F8602042EA8414F0
:109DC00083F86040F0BDAB0003F1804303F5C0436E
:109DD0000202D3F8101521F44F3121F44071C3F879
:109DE00010152404D3F8101504F4403402F47C5206
:109DF00022430A43C3F810250020F0BD1F2887BF67
:109E0000124A00F01F0404464FF0A04202EB840205
:109E1000D2F8004724F00204C2F80047BAE7082647
:109E200084F83060C3F820E0354634461C4484F89A
:109E300058009CE7644692E73C4690E700251A608C
:109E400084F8305093E700BF742B002000030050CB
:109E5000D82B002070B43A4D2E1883B096F93030CC
:109E6000072B20DD2B4493F858309B09032B45D05A
:109E7000012B14BF4FF440314FF400311F284DD94E
:109E800000F01F002F4B03EB8000D0F8002722F4D6
:109E90004032C0F80027D0F800370B43C0F8003735
:109EA00003B070BC7047DAB2072AF9D8980000F105
:109EB000804000F5C04003F14002D0F81045920008
:109EC00092B244F0010402F18042C0F8104502F55C
:109ED000C04200200190019C10600029E0D096F95A
:109EE000302055F82220002ADAD00122164902FA41
:109EF00003F3C1F8043303B070BC70471F2810D9B6
:109F0000104BD3F8103500F01F00C34013F0010FC1
:109F10000CBF4FF400314FF44031B3E74FF0A04392
:109F2000B1E74FF0A0421346D2F81025C24012F01C
:109F3000010F14BF4FF440314FF40031A3E700BFCD
:109F4000742B002000030050006000401F288ABFCF
:109F5000054B4FF0A04300F01F00D3F8103523FA53
:109F600000F000F001007047000300502DE9F04FB1
:109F7000002385B0CDE902339D4A1168012900F024
:109F8000C1801E469B4B1A68012A00F0AD809A4B97
:109F90001A68012A00F09A80984B1A68012A57D053
:109FA000974B1A68012A63D0964B1A68012A6FD022
:109FB000954B1A68012A7BD0944B1A68012A3AD033
:109FC000934B1A68012A13D100221A601B6801936F
:109FD0004FF0A042019BD2F820158E4B0291C2F89F
:109FE0002015D3F82025039246F00046C3F820251B
:109FF00016F0FF0F1AD0884F00240125A30003F1AB
:10A0000080432E4203F5C0434FEA45050BD0D3F8F9
:10A01000100557F82420D3F81015C0F30520C1F31C
:10A02000014102B190470134082CE7D1002E75DBC5
:10A0300005B0BDE8F08F794AD2F804231206BFD5E7
:10A0400000221A601B680093009B46F08006B7E769
:10A05000724AD2F804231507A2D500221A601B68A1
:10A060000093009B664B1A68012A46F008069BD1B4
:10A070006A4AD2F80423D40696D500221A601B68D7
:10A080000093009B5F4B1A68012A46F010068FD19F
:10A09000624AD2F8042390068AD500221A601B680F
:10A0A0000093009B584B1A68012A46F0200683D182
:10A0B0005A4AD2F8042351067FF57EAF00221A6077
:10A0C0001B680093009B46F0400675E7534AD2F8A0
:10A0D000042357077FF560AF00221A601B680093C6
:10A0E000009B46F0040657E74C4AD2F80423920737
:10A0F0007FF54DAF00221A601B680093009B46F06D
:10A10000020644E74549D1F8046316F001063FF41E
:10A1100039AF136013680093009B33E7404EDFF8BC
:10A12000F480A6F164073F4C012514F9011B4B1C78
:10A130003CD0C9B204AB21F0C00003EBD00201F067
:10A14000070312F8082C05FA03F31A422ED01F2831
:10A1500087BF01F01F0CC24684464FF0A04A0AEBAD
:10A160008C033A18D3F800E7D3F8009792F930201F
:10A1700029F44039C3F80097CEF3014ED3F8009785
:10A1800057F82220BEF1020F14BF4FF4003B4FF4EA
:10A19000403B05FA0CFC49EA0B09C3F80097CAF8E2
:10A1A00020C51AB18909032915D19047B442BCD101
:10A1B0004FF0A042D2F820350293C2F82035D8F8EB
:10A1C00020250392C8F82025002BACD1002AAAD163
:10A1D00005B0BDE8F08FBEF1020F05D0BEF1030F50
:10A1E000E4D10229E2D1E0E70129DFD1DDE700BFB8
:10A1F0000061004004610040086100400C610040C3
:10A200001061004014610040186100401C61004072
:10A210007C61004000030050742B0020006000406F
:10A22000D82B0020D42B0020014B1B68184700BFFF
:10A23000E02B0020104B984201D00020704730B531
:10A2400083B002A8002300F8013D0D46FEF76AF92D
:10A250000A4B1C7934B19DF80700FEF789F91120EB
:10A2600003B030BD01229DF807001D601A71FEF792
:10A270007FF92046F4E700BF00200040E02B0020DB
:10A28000034B984203D1034B00221A601A717047A6
:10A2900000200040E02B002030B56D4AD2F8043396
:10A2A00099058BB068D5D2F82431002B64D00023F7
:10A2B000C2F82431D2F8243101934FF40171654B77
:10A2C0000198C2F8081393F8291009B901215160C7
:10A2D0005F4902228DF81820D1F88024C1F880242B
:10A2E0009869D96809920022CDE90710C3E90622CE
:10A2F000D3E9001406A8A047554AD2F81C31CBB1C7
:10A30000544B5869196A88426BD851490022C1F8E8
:10A310001C21D1F81C1102910299596951B1586957
:10A3200099688DF8182008905A61079106A8D3E91A
:10A3300000129047464AD2F84431DBB10021454B28
:10A34000C2F84411D2F8440193F829100090009803
:10A3500009B1012111609A6962B10022586AD96875
:10A360009A610122CDE907108DF8182006A8D3E9DB
:10A37000001290470BB030BD354AD2F804335B076A
:10A38000BAD5D2F80831002BB6D0324B99690029E2
:10A390003CD00021C2F80811D2F8081104910499A8
:10A3A000D868596AD2F8182542545A6A9969013214
:10A3B0005A625A6A8A429FD1DA691968002A2ED0F5
:10A3C000D8685D6A1C699A61079000220120DC60F0
:10A3D000DA615A628DF8180008955B6806A89847FC
:10A3E0008AE793F8281001F0FF0000298DD1C2F808
:10A3F0001C01D2F81C11039103999C68186A196A10
:10A40000205C01311962C2F81C0593E7C2F80811FB
:10A41000D2F8080105900598D2F81825C9E793F8F5
:10A42000292012B90A4A01205060094A4FF40170EC
:10A43000C2F80803586ADA680890002401200792DD
:10A440008DF818005A689C6106A8904754E700BF31
:10A4500000200040E82B00202DE9F041724F0679E2
:10A460002C2505FB067582B095F82A30002B40F0AC
:10A470009C800D4604466D4900689046FFF7DAFE61
:10A48000002840F08E802B68591C19D01F2B4FF0EC
:10A4900001028ABF66494FF0A04103F01F0302FA90
:10A4A00003F3C1F808352B681F2B86BF03F01F0389
:10A4B0005F4A4FF0A04203F5E073032142F82310F6
:10A4C0006B685A1C0BD01F2B86BF03F01F03584A22
:10A4D0004FF0A04203F5E073002142F823102368F7
:10A4E000AA69C3F82425297D6B7D22680B43C2F835
:10A4F0006C35D5E900122368C3F81425C3F80C1590
:10A500002B7D012B55D02C2303FB06F3FA18C2F840
:10A5100004802A69FA50B8F1000F2FD022682B7FEF
:10A52000444D0021C2F81C11D2F81C21009222686F
:10A53000DDF800C0C2F84411D2F84411226801913C
:10A540000199C2F804532168090B4AB25B01002A41
:10A55000DBB263DB02F1604202F5614282F8003354
:10A5600021680A0B53B2002B09DB01215B09324D34
:10A5700002F01F0201FA02F245F8232021682C2381
:10A5800003FB0673002201250424C1F8004583F86B
:10A590002A50C3E9062283F829205A6102B0BDE897
:10A5A000F081112002B0BDE8F081082002B0BDE8C2
:10A5B000F081AB68591C0BD01F2B86BF03F01F0323
:10A5C0001B4A4FF0A04203F5E073002142F823102C
:10A5D000EB685A1C1BD01F2B4FF001028ABF144995
:10A5E0004FF0A04103F01F0302FA03F3C1F808354E
:10A5F000EB681F2B88BF03F01F0303F5E0738CBFCC
:10A600000B4A4FF0A042032142F82310EB68226866
:10A61000A968C2F80835C2F8101574E7074A01F0B6
:10A620000F010A4413769BE7E82B002099A2020051
:10A63000000300508000020000E100E0FCEC00E0BC
:10A64000F8B53D4F047902682C2303FB0473002105
:10A650005B68C2F80015B3B10368384AC3F8082331
:10A660000368190B4AB2002A0EDB5209203201237B
:10A67000334D01F01F0103FA01F145F82210BFF339
:10A680004F8FBFF36F8F0368D3F80C65D3F8145561
:10A69000D3F80825D3F810154FF0FF3CC3F814C5C4
:10A6A000C3F80CC503686645C3F808C5C3F810C5F0
:10A6B0000CD01F2E86BF06F01F06224B4FF0A04382
:10A6C00006F5E0764FF0020C43F826C06E1C0BD066
:10A6D0001F2D86BF05F01F051A4B4FF0A04305F54F
:10A6E000E075022643F825604D1C0BD01F2986BF5C
:10A6F00001F01F01134B4FF0A04301F5E07102255B
:10A7000043F82150531C0BD01F2A86BF02F01F02B2
:10A710000C494FF0A04102F5E072022341F82230CB
:10A720000068FFF7ADFD2C2303FB0474002384F8BD
:10A730002A306360F8BD00BFE82B002084020200CD
:10A7400000E100E000030050F0B5314E05792C2304
:10A7500003FB056385B05C69002C53D15A61996095
:10A760001C6283F828400268C2F81C41D2F81C1110
:10A77000026802910121029F91600268D3F808C02B
:10A78000C2F81C41D2F81C1101910199D3F820E0C4
:10A79000196A5F681CF80EE001311962C2F81CE505
:10A7A00017B1204605B0F0BD5C691A6A0168944291
:10A7B00003D819E093F828203ABBD1F81C21002ACD
:10A7C000F8D0C1F81C71D1F81C210392039AD3F878
:10A7D00020E01A6A1CF80EE001321A62C1F81CE58A
:10A7E0001A6A9442E9D80168D1F81C31002BFBD0D9
:10A7F0000123CB6000202C2303FB056500236B6144
:10A8000005B0F0BD112005B0F0BD0F20F3E700BF8B
:10A81000E82B0020F0B5524BD3F824218BB0002A4E
:10A820006ED00021C3F82411D3F82421049202220F
:10A830008DF81820049AD3F880044A4AC3F880049B
:10A840000990D3F83C05D3680890C2E90611079334
:10A850001168536806A89847414BD3F84421BAB110
:10A860000021404AC3F84411D3F84441906903944D
:10A87000039C68B1D3F83C35D06808930123C2E942
:10A88000061107908DF8183006A8D2E900139847F2
:10A89000334BD3F82021BAB10021C3F82011D3F8EB
:10A8A0002021029201202F4A029CD860506958B1A1
:10A8B000D3F84C05936808908DF8181051610793F0
:10A8C00006A8D2E900139847254BD3F85821AAB11E
:10A8D0000021C3F85811D3F85801224A0190019879
:10A8E000506958B1D3F84C05936808908DF818104A
:10A8F0005161079306A8D2E9001398470BB0F0BD49
:10A90000D3F810110029A7D0C3F81021D3F81011E3
:10A910001448059105998169D3F83C458C429BD137
:10A92000C569C768D0E900168DB1D3F800C285614A
:10A930002CF02005C261C3F800520369C3600122F4
:10A94000CDE907748DF8182006A8B04784E70123E5
:10A950008561CDE907748DF8183006A8B0477BE70C
:10A9600000200040142C00202DE9F0430779854E8B
:10A970004FEAC70808EB070506EB850587B095F891
:10A980002030002B40F0BA80894604467E4900689A
:10A990001546FFF74FFC002840F0AC80D9F8003096
:10A9A000591C1AD01F2B4FF001028ABF77494FF074
:10A9B000A04103F01F0302FA03F3C1F80835D9F8E8
:10A9C00000301F2B86BF03F01F03704A4FF0A042D8
:10A9D00003F5E073032142F82310D9F804305A1C20
:10A9E0000BD01F2B86BF03F01F03684A4FF0A04215
:10A9F00003F5E073002142F823102368D9F81820EA
:10AA0000C3F8242599F8141099F8152023680A43EF
:10AA1000C3F86C25D9E900312268C2F80C35C2F8B8
:10AA2000141599F81430012B6CD008EB0702920032
:10AA3000B3185D60D9F81030B3502168002D48D0AC
:10AA4000002399F81C20C1F81031D1F810110191A0
:10AA50002168DDF804C0C1F82031D1F8201102913D
:10AA60002168DDF808C0C1F82431D1F82411039120
:10AA70002168DDF80CC0C1F84431D1F844110491CB
:10AA80002168DDF810C0C1F85831D1F85811236899
:10AA900005913F4D0599C3F804532168090B5301F3
:10AAA0004AB2002ADBB267DB02F1604202F5614282
:10AAB00082F8003321680A0B53B2002B09DB012115
:10AAC0005B09344D02F01F0201FA02F245F823201F
:10AAD000216808EB070306EB830300220125082405
:10AAE000C1F8004583F82050C3E906225A6107B037
:10AAF000BDE8F083112007B0BDE8F083082007B05F
:10AB0000BDE8F083D9F80830591C0BD01F2B86BF45
:10AB100003F01F031D4A4FF0A04203F5E07300212C
:10AB200042F82310D9F80C305A1C1DD01F2B4FF0BF
:10AB300001028ABF15494FF0A04103F01F0302FA3A
:10AB400003F3C1F80835D9F80C301F2B88BF03F088
:10AB50001F0303F5E0738CBF0C4A4FF0A0420321A2
:10AB600042F82310D9F80C302268D9F80810C2F83E
:10AB70000835C2F8101558E7074A01F00F010A44DA
:10AB8000137697E7142C002015A80200000300504C
:10AB90001003420000E100E0FCEC00E02DE9F04190
:10ABA0000679544C0268F500AB1904EB830382B0BC
:10ABB0005B68B3B1504BC2F8083303681B0B59B242
:10ABC00000290EDB490920310127DFF834C103F0E9
:10ABD0001F0307FA03F34CF82130BFF34F8FBFF385
:10ABE0006F8FA91904EB8101D2F80032896923F033
:10ABF0002003C2F8003241B10023C2F84431D2F838
:10AC0000443100930123009953600023C2F8583166
:10AC1000D2F858310193AB19012104EB8303019F52
:10AC2000D1609969D2F85831002BFBD019B1D2F814
:10AC30004431002BF6D00023C2F8003503684FF0F2
:10AC4000FF38D3F80CE5D3F814C5D3F80815D3F8BA
:10AC50001075C3F80C85C3F814850368C645C3F89E
:10AC60000885C3F810850CD0BEF11F0F86BF0EF00B
:10AC70001F0E224B4FF0A0430EF5E07E022043F85A
:10AC80002E00BCF1FF3F0CD0BCF11F0F86BF0CF0B3
:10AC90001F0C1A4B4FF0A0430CF5E07C022043F848
:10ACA0002C00781C0BD01F2F86BF07F01F07134BFB
:10ACB0004FF0A04307F5E077022043F827004B1C34
:10ACC0000BD01F2986BF01F01F010C484FF0A04098
:10ACD00001F5E071022340F821301046FFF7D0FA69
:10ACE000354404EB8504002384F82030636002B00F
:10ACF000BDE8F081142C0020100342000003005036
:10AD000000E100E001F06043B3F1005F2CD1F0B44A
:10AD10000579264EEF007C1906EB840482B0636946
:10AD200023BB6261A1600268C2F82031D2F820C161
:10AD30000268CDF804C0DDF804C0C2F85831D2F87A
:10AD4000582100920268DDF800C0D4F814C0C2F89F
:10AD50004415C2F848C502680121916062684AB191
:10AD6000184602B0F0BC704710207047112002B0A6
:10AD7000F0BC7047036800E0B2B9D3F82011D3F8F3
:10AD800058210029F8D07AB90122DA600268D2F895
:10AD90005831002BFBD000203D4406EB85060023F4
:10ADA000736102B0F0BC70470F20F5E7142C00204F
:10ADB000262800D07047012904D00029FAD10120AB
:10ADC000FEF7FEBC0846FEF7E7BC00BF08B5012051
:10ADD000FEF70AFDFDF7F0FA00F0ACF940F233326D
:10ADE00001210348FDF790F8FDF7EAF8002008BDBF
:10ADF00028230020F0B50288112A83B0034649D0E9
:10AE000036D9122A08D0502A04D16C4DC188EA895B
:10AE1000914251D003B0F0BD694C828821889142A3
:10AE2000F8D1E1896589B1F5FA7F24BF6FF4F97033
:10AE30000E18588938BF002685424FD8A58985420B
:10AE40004CD39B89B34249D301F2F311994245D3C4
:10AE50005A4B5B694FF480712181002BDAD00121BC
:10AE6000ADF806208DF8041001A8984703B0F0BD96
:10AE7000102ACFD1C27B012ACCD1514C21884FF668
:10AE8000FF7291423CD04D4B9B69002BC2D00420F5
:10AE90009847BFE74A4C828823889A42BAD16068B3
:10AEA000FDF71EFB18B1454B9B6903B198474FF660
:10AEB000FF73238003B0F0BD028A022AAAD1404C5E
:10AEC00086882788B742A5D1123000F02DF90028D6
:10AED00056D16068FDF704FB70B99BE7374D267AC1
:10AEE0006068D5E90131002E08BF1946002363725E
:10AEF000FDF7A6FA00288DD0AB69002BB5D189E704
:10AF0000304D8288228003CDC4F80E10E689C4F843
:10AF10000A00B6F5FA7F28BF6FF4F9754FF000010B
:10AF2000588AB4F80AC0217228BF7119234D84458C
:10AF3000EF8919D8B4F80CC0844515D39B8A8B428D
:10AF400012D306F2F3169E420ED301216172002F36
:10AF50007FF460AF6B69002B3FF45CAF8DF8041099
:10AF6000ADF8062001A880E700236372002F7FF46C
:10AF700051AF60686968FDF763FA0028BCD149E702
:10AF8000637A63B9D5E90131267A60683A46002EC2
:10AF900008BF1946FDF754FA0028ADD13AE76B69AE
:10AFA00000222272002B3FF435AF0122ADF806607B
:10AFB0008DF8042001A898472CE700BF382C00200A
:10AFC000542C0020682C00202DE9F0470388B0F8AD
:10AFD0000490103B98B080460A2B1BD8DFE803F0A2
:10AFE0002F281A1A1A1A1A1A1A1D0600047A464825
:10AFF0002409032C494665D8FDF7CAFC032C63D00D
:10B0000049464248FDF7C4FC022C61D049464048FD
:10B01000FDF7BEFC18B0BDE8F087037A002BF9D12C
:10B02000437A39481B0749466AD4FDF7B1FCF1E77A
:10B0300049463848FDF7ACFC18B0BDE8F087364A01
:10B04000936818A8DB4340F8603D5168FDF7CAFCDF
:10B05000009B0193019B63B300273C46214601A856
:10B06000FDF7A0FC28B118AB03EB4703013723F829
:10B07000284C0134142CF1D10D970DAE0FCE02AC3B
:10B080000FC40FCE0FC496E8070084E8070087B10D
:10B090000DF10A0A214E0AEB47073AF8025F204CED
:10B0A000204629460434FDF773FCA642F8D1BA4580
:10B0B000F3D1B9F1130F12D90420FCF797FF18B0A0
:10B0C000BDE8F087FDF75AFC49461048FDF756FCED
:10B0D00049460F48FDF752FC18B0BDE8F0874946D5
:10B0E0000C48FDF74BFC49460D48FDF747FC98F826
:10B0F0000F30022B8ED149460A48FDF73FFC89E705
:10B10000FDF73CFC86E700BF882C0020842C002043
:10B11000802C0020782C0020702C0020EC2C0020AB
:10B12000742C00207C2C0020007800F00100704777
:10B1300010DF704770B53B4D2B7884B0002B63D186
:10B14000394E3A49012302A83370FEF7CDF9039B2B
:10B15000002B4FD1364902A8FEF7C6F9039B4BB12D
:10B16000D3E900210020904702A8FEF7C7F9039B0E
:10B17000002BF5D12F4A002312688DF8083002A861
:10B180000192FDF7CFF92C4901A8FFF7D1FFB0FAE2
:10B1900080F304465B099DF808002B70FDF7E8F981
:10B1A000002C2ED1254B26491C70347091F81623A3
:10B1B000EC2352091341DB072FD5224B9A683ABB87
:10B1C0004FF480030B601A4902A8FEF78DF9039B28
:10B1D000BBB1D3E900210120904702A8FEF78EF908
:10B1E000039B002BF5D10CE002A8FEF787F9039B27
:10B1F000002BAFD0D3E90021002090470028F3D1E5
:10B200000446204604B070BD0824204604B070BD3A
:10B210001A6842F480021A60D5E742F20200FCF795
:10B22000E5FED0E7ED2C0020EC2C002080B60200DB
:10B2300098B602007CB602000D800200EE2C0020C1
:10B2400000E100E0F02C0020014B1878704700BFAF
:10B25000ED2C002000B583B068460849FEF744F99C
:10B26000019B43B1D3E9002090476846FEF746F9B9
:10B27000019B002BF6D103B05DF804FB8CB60200F5
:10B2800061DF7047134B1B781BB330B5124D91B083
:10B2900034240DF1020103A8ADF80240FFF7F0FFDE
:10B2A00088B9294601A8FEF71FF9029B002BF0D0B0
:10B2B000D3E9002103A8904701A8FEF71FF9029BDC
:10B2C000002BF5D1E5E7052801D0FCF78FFE11B082
:10B2D00030BD7047EF2C0020ACB602004BDF70474A
:10B2E00010B5114C84B001A8FFF7F8FFA8B92146AA
:10B2F00002A8FEF7F9F8039B002BF4D0D3E9002154
:10B300000198904702A8FEF7F9F8039B002BF5D1AE
:10B3100001A8FFF7E3FF0028E9D0052801D0FCF7DA
:10B3200065FE04B010BD00BFC4B6020008B5074BEF
:10B33000044613B10021AFF30080054B1868836AFF
:10B3400003B19847204600F071F800BF00000000EC
:10B35000DCB6020070B50D4E0D4CA41BA4100025E8
:10B36000A54209D10B4E0C4C00F062F8A41BA410AE
:10B370000025A54205D170BD56F825309847013506
:10B38000EEE756F8253098470135F2E70025002012
:10B39000002500200025002004250020044B054A3C
:10B3A0001B681B6A002B08BF1346D3F8EC007047DC
:10B3B000302300209423002082B001B901A942B1BA
:10B3C0004BB113780B601278101C18BF012002B02B
:10B3D00070471046FBE76FF00100F8E710B5431E19
:10B3E0000A44914200D110BD11F8014B03F8014FFE
:10B3F000F7E702440346934200D1704703F8011B6C
:10B40000F9E7034613F8012B002AFBD1181A01387B
:10B41000704749B1FF2A85BF8A2303600A704FF045
:10B42000FF3098BF0120704708467047FEE700BF15
:10B43000F8B500BFF8BC08BC9E467047F8B500BF21
:10B44000F8BC08BC9E467047FFFFFFFFFFFFFFFFF1
:10B45000FFFFFFFFFFFFFFFF0000000000000000F4
:10B460000000D60106010000C97302003574020015
:10B47000C5730200756172745F6C6F675F626163B0
:10B480006B656E64000000004261636B656E6473FF
:10B4900020666C7573686564000000006170700060
:10B4A000F8B4020028B50200D8B4020030B502009A
:10B4B00038B5020040B5020048B5020050B50200A0
:10B4C00058B50200202530327800000020202000EE
:10B4D0007C000000256300001B5B313B33316D00B5
:10B4E00025734C6F67732064726F707065642028D9
:10B4F00025642925730D0A001B5B306D00000000D8
:10B50000257300003C25733E2025733A200000007F
:10B510000D0A00000000000060B5020068B50200DE
:10B5200070B5020078B502001B5B313B33306D0013
:10B530001B5B313B33326D001B5B313B33336D00A2
:10B540001B5B313B33346D001B5B313B33356D008E
:10B550001B5B313B33366D001B5B313B33376D007A
:10B560006572726F720000007761726E696E6700BB
:10B57000696E666F00000000646562756700000018
:10B58000682A00206170705F627574746F6E0000CD
:10B59000466174616C206572726F720053797374C6
:10B5A000656D20726573657400000000010006007F
:10B5B00000000000B42A00207D8002006170705FEE
:10B5C00074696D657200000000000000000000005A
:10B5D0000338FDD87047000052544320696E7374DD
:10B5E000616E636520616C726561647920696E6962
:10B5F0007469616C697A65642E0000005254433AA4
:10B6000020696E697469616C697A65642E00000056
:10B610003031323334353637383941424344454688
:10B620007077725F6D676D7400000000736F7274E5
:10B630006C69737400000000010000000608290C0A
:10B64000636C6F636B000000434C4F434B00000082
:10B650004750494F544500005052530055415254F1
:10B660000000000055415254450000006E72665FB4
:10B67000626C655F67617474000000000100000780
:10B6800008B8020008B802000800000010B8020064
:10B6900020B802000800000008B8020010B802003C
:10B6A000080000006E72665F73646800F8B70200FD
:10B6B00008B80200080000006E72665F7364685F7D
:10B6C000626C6500F0B70200F8B7020008000000E5
:10B6D0006E72665F7364685F736F6300342300206B
:10B6E0004300504F534958002E00002020202020B6
:10B6F0002020202028282828282020202020202022
:10B700002020202020202020202020881010101011
:10B710001010101010101010101010040404040465
:10B720000404040404101010101010104141414191
:10B730004141010101010101010101010101010179
:10B74000010101010101101010101010424242428B
:10B750004242020202020202020202020202020249
:10B76000020202020202101010102000000000006D
:10B7700000000000000000000000000000000000C9
:10B7800000000000000000000000000000000000B9
:10B7900000000000000000000000000000000000A9
:10B7A0000000000000000000000000000000000099
:10B7B0000000000000000000000000000000000089
:10B7C0000000000000000000000000000000000079
:10B7D0000000000000000000000000000000000069
:10B7E0000000000000000000000000000000000059
:08B7F0000199020000000000B5
:10B7F800C9AF020000000000F5AD02000000000023
:08B80800299902000000000074
:10B8100085B2020000000000E1B20200000000005A
:10B820006C250020342600203C26002074250020B2
:04B8300018000000FC
:10B8340048B602000000000050B6020000000000FC
:10B8440058B60200000000005CB6020000000000D0
:10B8540064B60200000000009CB402000000030370
:10B8640084B5020000000000BCB502000000000026
:10B8740040B60200000000006CB6020000000303A2
:10B88400A4B6020000000303B8B6020000000303DC
:10B89400D0B602000000030320B60200000000003E
:08B8A4002CB6020000000000B8
:10B8AC0068B402000000000074B4020014230020ED
:08B8BC0084B9FF7F01000000C8
:10B8C40000000000002000400000000000200040B4
:10B8D4000000000000000000FF0000000010014014
:10B8E400110004000090D00326000300B1AD020053
:10B8F40034230020000000000000000000000000CD
:10B904000000000000000000000000000000000033
:10B914000000000000000000000000000000000023
:10B924000000000000000000000000000000000013
:10B934000000000000000000000000000000000003
:10B9440000000000000000000000000000000000F3
:10B9540000000000430000000000000000000000A0
:10B9640000000000000000000000000000000000D3
:10B974000000000043000000000000000000000080
:10B9840000000000000000000000000000000000B3
:10B994000000000043000000000000000000000060
:10B9A4000000000000000000000000000000000093
:10B9B4000000000043000000000000000000000040
:10B9C4000000000000000000000000000000000073
:10B9D4000000000043000000000000000000000020
:10B9E4000000000000000000000000000000000053
:10B9F4000000000043000000000000000000000000
:10BA04000000000000000000000000000000000032
:10BA140000000000430000000000000000000000DF
:10BA24000000000000000000000000000000000012
:10BA34000000000013B40200B9B3020000000000CB
:10BA4400EAB60200E8B60200E9B60200E9B602006E
:10BA5400E9B60200E9B60200E9B60200E9B602005E
:10BA6400E9B60200E9B60200E9B60200FFFFFFFFF3
:10BA7400FFFFFFFFFFFFFFFFFFFF00000100415337
:10BA840043494900000000000000000000000000DD
:10BA9400000000000000000000000000000041530E
:10BAA40043494900000000000000000000000000BD
:10BAB4000000000000000000000000000000000082
:08BAC40025720200017202006C
:04000003200072B5B2
:00000001FF
